:04000000803119280A
:100008007E1480318231F02280312E008C1E0D2822
:100018000E281728DF30F00070088C05013020000A
:10002800C3070030C43D7E10090080311B28200022
:10003800B901BA01BB01BC01BD01BE01BF01C001CC
:10004800C101C201C301C4017E102000803187288C
:1000580000302000A3000030A2000030A1000030D2
:10006800A000740873047204710403193C283D2825
:100078007E28A401A40A4B280130F135F20DF30DB6
:10008800F40D890B41280130F9007908A407F41F01
:100098004E284F2840280130A035A10DA20DA30DF0
:1000A800890B502874087802031D642873087702A6
:1000B800031D642872087602031D642871087502FE
:1000C800031C6728682871287108F5027208F63B36
:1000D8007308F73B7408F83B20140130F436F30C2E
:1000E800F20CF10C890B72280130A402031D7D2843
:1000F8007E284F282308F4002208F3002108F20084
:100108002008F100080000302000B4000130B300DE
:10011800C230B2000030B1008231752280318030A7
:1001280020009F001F160730B50035089F04803057
:100138009E00DF30B50035082E008C0596160B178B
:100148008B173000921432008C017F302000B500EC
:10015800350892057F30B50035083E00C3057F306D
:100168002000B500350897052000971781317821C0
:10017800803120002508B5002608B600B701B8016F
:100188003808B2003708B1003608B0003508AF00AB
:100198008231A32280310000000000007F3020005F
:1001A800B500350897056300B82880311928FC0187
:1001B80020002808270426042504031DE428E52830
:1001C8002329BA010130C2002D297C083A3E860055
:1001D80087010030F4000030F3000030F2000A30EC
:1001E800F1002808F8002708F7002608F600250877
:1001F800F50081312E218031710881000030F40032
:100208000030F3000030F2000A30F1002000280826
:10021800F8002708F7002608F6002508F5008031C1
:100228002C20803174082000A8007308A7007208E9
:10023800A6007108A5000130FB007B08FC07280810
:10024800270426042504031D2A292B29E9287C08CC
:10025800C200080074087304720471040319352974
:1002680036296F29FA01FA0A44290130F135F20DCD
:10027800F30DF40D890B3A290130F9007908FA07D2
:10028800F41F47294829392974087802031D56297B
:1002980073087702031D562972087602031D562932
:1002A80071087502031C59295A2962297108F50237
:1002B8007208F63B7308F73B7408F83B0130F436D4
:1002C800F30CF20CF10C890B63290130FA02031DBF
:1002D8006E296F2948297808F4007708F300760812
:1002E800F2007508F10008008231E0228131813185
:1002F800FF2181313F308231B32281313F30823159
:10030800B322813171082000A7007208A800A90152
:10031800AA018231EB2281318231E8228131003019
:100328002000AE002030AD000030AC000030AB0043
:100338002A08F4002908F3002808F2002708F10029
:100348002E08F8002D08F7002C08F6002B08F500F9
:1003580080312C20813174082000AE007308AD0074
:100368007208AC007108AB002C08A6002B08A50089
:10037800080001302000B000E830AF004830AE007F
:100388000030AD002808F4002708F3002608F20022
:100398002508F1002D08A9002E08AA002F08AB0097
:1003A8003008AC000230AC36AB0CAA0CA90C890B97
:1003B800D7292C08F8002B08F7002A08F600290886
:1003C800F50080312C208131FF3071072000AD000D
:1003D800FF30723DAE00FF30733DAF00FF30743D1B
:1003E800B0002E0822009C0020002D0822009B004F
:1003F8009F151E15080021001A080319042A052A4A
:10040800062A9A013F30180603190B2A0C2A0E2ACD
:100418003F30980004301D060319132A142A162A9F
:1004280004309D001C0803191A2A1B2A1C2A9C0147
:100438001B030319202A212A232A01309B00843018
:1004480013060319282A292A2B2A84309300140812
:1004580003192F2A302A312A940108002000AC1FE2
:10046800362A372A472A2D308231D7228231200076
:10047800A909AA09AB09AC09A90A0319AA0A031907
:10048800AB0A0319AC0A2C08A8002B08A7002A08F5
:10049800A6002908A5008031DB208231823156224E
:1004A8008231080020004208F4007408031D5D2A08
:1004B8005E2A5F2A742A7408F3000130F302730875
:1004C8003A3E860087010108F3003030F2007208D6
:1004D800F30773088231D72282310130F402592A96
:1004E800080082318E2282318231EE2282318231BD
:1004F800EF22823120003408A8003308A700320810
:10050800A6003108A5008131BD2182318231C12286
:10051800823108002000B901F20172083A3E8600D3
:10052800870181010130F1007108F2070830720279
:10053800031C9F2AA02A912A2000C201080020003B
:100548003208AC003108AB003008AA002F08A90017
:100558008231322282318231CE2282310800F30088
:10056800730821009E0013141318BB2ABC2AB82A4A
:100578000D08F2000C08F100080020001217BF3027
:10058800F10071083E00C30510309E0022009E163F
:100598009D1708000D308231D72282310A3082310E
:1005A800D72282310800F100710822009A009E1CAF
:1005B800DE2ADF2ADB2A0800823032008C000C1F7A
:1005C800E62AE72AE32A080032008C010800210005
:0A05D8009301080008000800080065
:020000040001F9
:0A000E008C3F3F3F9F3FFF3FFF3F45
:00000001FF
