:04000000803119280A
:100008007E14803182313B2280312E008C1E0D28D7
:100018000E281728DF30F00070088C05013020000A
:10002800C0070030C13D7E10090080311B28200028
:10003800B601B701B801B901BA01BB01BC01BD01E4
:10004800BE01BF01C001C1017E10200081316629B7
:1000580000302000A3000030A2000030A1000030D2
:10006800A000740873047204710403193C283D2825
:100078007E28A401A40A4B280130F135F20DF30DB6
:10008800F40D890B41280130F9007908A407F41F01
:100098004E284F2840280130A035A10DA20DA30DF0
:1000A800890B502874087802031D642873087702A6
:1000B800031D642872087602031D642871087502FE
:1000C800031C6728682871287108F5027208F63B36
:1000D8007308F73B7408F83B20140130F436F30C2E
:1000E800F20CF10C890B72280130A402031D7D2843
:1000F8007E284F282308F4002208F3002108F20084
:100108002008F1000800FC01200028082704260424
:100118002504031D90289128CF28B7010130BF007E
:10012800D9287C08373E860087010030F40000306B
:10013800F3000030F2000A30F1002808F800270820
:10014800F7002608F6002508F5008031DA2080310E
:10015800710881000030F4000030F3000030F20034
:100168000A30F10020002808F8002708F7002608C0
:10017800F6002508F50080312C2080317408200015
:10018800A8007308A7007208A6007108A50001302E
:10019800FB007B08FC072808270426042504031D08
:1001A800D628D72895287C08BF000800740873044F
:1001B800720471040319E128E2281B29FA01FA0ADA
:1001C800F0280130F135F20DF30DF40D890BE62816
:1001D8000130F9007908FA07F41FF328F428E52814
:1001E80074087802031D022973087702031D022987
:1001F80072087602031D022971087502031C05297D
:1002080006290E297108F5027208F63B7308F73BB8
:100218007408F83B0130F436F30CF20CF10C890B3E
:100228000F290130FA02031D1A291B29F42878081E
:10023800F4007708F3007608F2007508F10008006A
:1002480001302000B000E830AF004830AE00003088
:10025800AD002808F4002708F3002608F200250856
:10026800F1002D08A9002E08AA002F08AB003008BD
:10027800AC000230AC36AB0CAA0CA90C890B3E2999
:100288002C08F8002B08F7002A08F6002908F500C2
:1002980080312C208131FF3071072000AD00FF3004
:1002A800723DAE00FF30733DAF00FF30743DB000CB
:1002B8002E0822009C0020002D0822009B009F157C
:1002C8001E15080000302000B4000130B300C23011
:1002D800B2000030B1008131DC2181318030200052
:1002E8009F001F160730B50035089F0480309E0018
:1002F800DF30B50035082E008C0596160B178B17C6
:100308003000921432008C0120004008AD004108F2
:10031800AE00AF01B00182310A2281310000000035
:10032800000063008829803119282000AC1F9D290E
:100338009E29AE292D308231302281312000A90931
:10034800AA09AB09AC09A90A0319AA0A0319AB0A35
:100358000319AC0A2C08A8002B08A7002A08A60035
:100368002908A5008031872081318131BD21813163
:10037800080020003F08F4007408031DC429C5299B
:10038800C629DB297408F3000130F3027308373EED
:10039800860087010108F3003030F2007208F30785
:1003A80073088231302281310130F402C0290800FB
:1003B8008131F521813182313922813182313A22EC
:1003C800813120003408A8003308A7003208A600AD
:1003D8003108A50081312421813182311A228131ED
:1003E80008002000B601F2017208373E8600870136
:1003F80081010130F1007108F20708307202031C14
:10040800062A072AF8292000BF0108002000300822
:10041800AC002F08AB002E08AA002D08A9008131D6
:100428009921823182312722823108002000121757
:10043800BF30F10071083E00C30510309E00220055
:100448009E169D1708000D308231302282310A3005
:100458008231302282310800F100710822009A00AE
:100468009E1C372A382A342A080008000800080089
:020000040001F9
:0A000E008C3F3F3F9F3FFF3FFF3F45
:00000001FF
